{
  "contractName": "ControleMarchandise",
  "abi": [
    {
      "inputs": [],
      "stateMutability": "nonpayable",
      "type": "constructor"
    },
    {
      "anonymous": false,
      "inputs": [
        {
          "indexed": false,
          "internalType": "uint256",
          "name": "id",
          "type": "uint256"
        },
        {
          "indexed": false,
          "internalType": "string",
          "name": "nom",
          "type": "string"
        },
        {
          "indexed": false,
          "internalType": "bytes32",
          "name": "hashAuthenticite",
          "type": "bytes32"
        },
        {
          "indexed": false,
          "internalType": "address",
          "name": "importateur",
          "type": "address"
        }
      ],
      "name": "MarchandiseAjoutee",
      "type": "event"
    },
    {
      "anonymous": false,
      "inputs": [
        {
          "indexed": false,
          "internalType": "uint256",
          "name": "id",
          "type": "uint256"
        },
        {
          "indexed": false,
          "internalType": "address",
          "name": "autorite",
          "type": "address"
        }
      ],
      "name": "MarchandiseBloquee",
      "type": "event"
    },
    {
      "anonymous": false,
      "inputs": [
        {
          "indexed": false,
          "internalType": "uint256",
          "name": "id",
          "type": "uint256"
        },
        {
          "indexed": false,
          "internalType": "uint256",
          "name": "timestampValidation",
          "type": "uint256"
        },
        {
          "indexed": false,
          "internalType": "address",
          "name": "controleur",
          "type": "address"
        }
      ],
      "name": "MarchandiseControlee",
      "type": "event"
    },
    {
      "anonymous": false,
      "inputs": [
        {
          "indexed": false,
          "internalType": "uint256",
          "name": "id",
          "type": "uint256"
        },
        {
          "indexed": false,
          "internalType": "address",
          "name": "autorite",
          "type": "address"
        }
      ],
      "name": "MarchandiseDebloquee",
      "type": "event"
    },
    {
      "anonymous": false,
      "inputs": [
        {
          "indexed": false,
          "internalType": "uint256",
          "name": "id",
          "type": "uint256"
        },
        {
          "indexed": false,
          "internalType": "address",
          "name": "transporteur",
          "type": "address"
        }
      ],
      "name": "MarchandiseEnTransit",
      "type": "event"
    },
    {
      "anonymous": false,
      "inputs": [
        {
          "indexed": true,
          "internalType": "bytes32",
          "name": "role",
          "type": "bytes32"
        },
        {
          "indexed": true,
          "internalType": "bytes32",
          "name": "previousAdminRole",
          "type": "bytes32"
        },
        {
          "indexed": true,
          "internalType": "bytes32",
          "name": "newAdminRole",
          "type": "bytes32"
        }
      ],
      "name": "RoleAdminChanged",
      "type": "event"
    },
    {
      "anonymous": false,
      "inputs": [
        {
          "indexed": true,
          "internalType": "bytes32",
          "name": "role",
          "type": "bytes32"
        },
        {
          "indexed": true,
          "internalType": "address",
          "name": "account",
          "type": "address"
        },
        {
          "indexed": true,
          "internalType": "address",
          "name": "sender",
          "type": "address"
        }
      ],
      "name": "RoleGranted",
      "type": "event"
    },
    {
      "anonymous": false,
      "inputs": [
        {
          "indexed": true,
          "internalType": "bytes32",
          "name": "role",
          "type": "bytes32"
        },
        {
          "indexed": true,
          "internalType": "address",
          "name": "account",
          "type": "address"
        },
        {
          "indexed": true,
          "internalType": "address",
          "name": "sender",
          "type": "address"
        }
      ],
      "name": "RoleRevoked",
      "type": "event"
    },
    {
      "inputs": [],
      "name": "AUTORITE_PORTUAIRE_ROLE",
      "outputs": [
        {
          "internalType": "bytes32",
          "name": "",
          "type": "bytes32"
        }
      ],
      "stateMutability": "view",
      "type": "function",
      "constant": true
    },
    {
      "inputs": [],
      "name": "DEFAULT_ADMIN_ROLE",
      "outputs": [
        {
          "internalType": "bytes32",
          "name": "",
          "type": "bytes32"
        }
      ],
      "stateMutability": "view",
      "type": "function",
      "constant": true
    },
    {
      "inputs": [],
      "name": "DOUANE_ROLE",
      "outputs": [
        {
          "internalType": "bytes32",
          "name": "",
          "type": "bytes32"
        }
      ],
      "stateMutability": "view",
      "type": "function",
      "constant": true
    },
    {
      "inputs": [],
      "name": "IMPORTATEUR_ROLE",
      "outputs": [
        {
          "internalType": "bytes32",
          "name": "",
          "type": "bytes32"
        }
      ],
      "stateMutability": "view",
      "type": "function",
      "constant": true
    },
    {
      "inputs": [],
      "name": "TRANSPORTEUR_ROLE",
      "outputs": [
        {
          "internalType": "bytes32",
          "name": "",
          "type": "bytes32"
        }
      ],
      "stateMutability": "view",
      "type": "function",
      "constant": true
    },
    {
      "inputs": [
        {
          "internalType": "bytes32",
          "name": "role",
          "type": "bytes32"
        }
      ],
      "name": "getRoleAdmin",
      "outputs": [
        {
          "internalType": "bytes32",
          "name": "",
          "type": "bytes32"
        }
      ],
      "stateMutability": "view",
      "type": "function",
      "constant": true
    },
    {
      "inputs": [
        {
          "internalType": "bytes32",
          "name": "role",
          "type": "bytes32"
        },
        {
          "internalType": "address",
          "name": "account",
          "type": "address"
        }
      ],
      "name": "grantRole",
      "outputs": [],
      "stateMutability": "nonpayable",
      "type": "function"
    },
    {
      "inputs": [
        {
          "internalType": "bytes32",
          "name": "role",
          "type": "bytes32"
        },
        {
          "internalType": "address",
          "name": "account",
          "type": "address"
        }
      ],
      "name": "hasRole",
      "outputs": [
        {
          "internalType": "bool",
          "name": "",
          "type": "bool"
        }
      ],
      "stateMutability": "view",
      "type": "function",
      "constant": true
    },
    {
      "inputs": [
        {
          "internalType": "bytes32",
          "name": "role",
          "type": "bytes32"
        },
        {
          "internalType": "address",
          "name": "account",
          "type": "address"
        }
      ],
      "name": "renounceRole",
      "outputs": [],
      "stateMutability": "nonpayable",
      "type": "function"
    },
    {
      "inputs": [
        {
          "internalType": "bytes32",
          "name": "role",
          "type": "bytes32"
        },
        {
          "internalType": "address",
          "name": "account",
          "type": "address"
        }
      ],
      "name": "revokeRole",
      "outputs": [],
      "stateMutability": "nonpayable",
      "type": "function"
    },
    {
      "inputs": [
        {
          "internalType": "bytes4",
          "name": "interfaceId",
          "type": "bytes4"
        }
      ],
      "name": "supportsInterface",
      "outputs": [
        {
          "internalType": "bool",
          "name": "",
          "type": "bool"
        }
      ],
      "stateMutability": "view",
      "type": "function",
      "constant": true
    },
    {
      "inputs": [
        {
          "internalType": "string",
          "name": "_nom",
          "type": "string"
        }
      ],
      "name": "ajouterMarchandise",
      "outputs": [],
      "stateMutability": "nonpayable",
      "type": "function"
    },
    {
      "inputs": [
        {
          "internalType": "uint256",
          "name": "_id",
          "type": "uint256"
        }
      ],
      "name": "controlerMarchandise",
      "outputs": [],
      "stateMutability": "nonpayable",
      "type": "function"
    },
    {
      "inputs": [
        {
          "internalType": "uint256",
          "name": "_id",
          "type": "uint256"
        }
      ],
      "name": "bloquerMarchandise",
      "outputs": [],
      "stateMutability": "nonpayable",
      "type": "function"
    },
    {
      "inputs": [
        {
          "internalType": "uint256",
          "name": "_id",
          "type": "uint256"
        }
      ],
      "name": "debloquerMarchandise",
      "outputs": [],
      "stateMutability": "nonpayable",
      "type": "function"
    },
    {
      "inputs": [
        {
          "internalType": "uint256",
          "name": "_id",
          "type": "uint256"
        }
      ],
      "name": "mettreEnTransit",
      "outputs": [],
      "stateMutability": "nonpayable",
      "type": "function"
    },
    {
      "inputs": [
        {
          "internalType": "uint256",
          "name": "_id",
          "type": "uint256"
        }
      ],
      "name": "consulterMarchandise",
      "outputs": [
        {
          "components": [
            {
              "internalType": "uint256",
              "name": "id",
              "type": "uint256"
            },
            {
              "internalType": "string",
              "name": "nom",
              "type": "string"
            },
            {
              "internalType": "enum ControleMarchandise.Statut",
              "name": "statut",
              "type": "uint8"
            },
            {
              "internalType": "uint256",
              "name": "timestampValidation",
              "type": "uint256"
            },
            {
              "internalType": "bytes32",
              "name": "hashAuthenticite",
              "type": "bytes32"
            }
          ],
          "internalType": "struct ControleMarchandise.Marchandise",
          "name": "",
          "type": "tuple"
        }
      ],
      "stateMutability": "view",
      "type": "function",
      "constant": true
    },
    {
      "inputs": [
        {
          "internalType": "address",
          "name": "_compte",
          "type": "address"
        },
        {
          "internalType": "bytes32",
          "name": "_role",
          "type": "bytes32"
        }
      ],
      "name": "ajouterRole",
      "outputs": [],
      "stateMutability": "nonpayable",
      "type": "function"
    }
  ],
  "bytecode": "0x60806040523480156200001157600080fd5b50620000276000801b336200010160201b60201c565b6200005c7f4bd537d64930d51674d2211b649bb830bcd4244821255bd281cb34aaa55bb9136000801b620001f260201b60201c565b620000917f0951ad040c467a940e24c1b925e7f2daaba78f2a4e90dbea68273cc639ac297b6000801b620001f260201b60201c565b620000c67f02834e745e45e65d88764a4a14de074383a0ddf208a3b4037c45abceba19b95b6000801b620001f260201b60201c565b620000fb7f02df70b00ff0c95bd2d612080dd7bb34b4888d4e5932659e961f42a44ea1ea646000801b620001f260201b60201c565b620002e6565b6200011382826200025560201b60201c565b620001ee57600160008084815260200190815260200160002060000160008373ffffffffffffffffffffffffffffffffffffffff1673ffffffffffffffffffffffffffffffffffffffff16815260200190815260200160002060006101000a81548160ff02191690831515021790555062000193620002bf60201b60201c565b73ffffffffffffffffffffffffffffffffffffffff168173ffffffffffffffffffffffffffffffffffffffff16837f2f8788117e7eff1d82e926ec794901d17c78024a50270940304540a733656f0d60405160405180910390a45b5050565b60006200020583620002c760201b60201c565b905081600080858152602001908152602001600020600101819055508181847fbd79b86ffe0ab8e8776151514217cd7cacd52c909f66475c3af44e129f0b00ff60405160405180910390a4505050565b600080600084815260200190815260200160002060000160008373ffffffffffffffffffffffffffffffffffffffff1673ffffffffffffffffffffffffffffffffffffffff16815260200190815260200160002060009054906101000a900460ff16905092915050565b600033905090565b6000806000838152602001908152602001600020600101549050919050565b6124ab80620002f66000396000f3fe608060405234801561001057600080fd5b50600436106101155760003560e01c80636a0e8a1b116100a2578063ad23eec211610071578063ad23eec2146102cc578063bcbce280146102e8578063ccbd420f14610304578063d547741f14610334578063ffee843c1461035057610115565b80636a0e8a1b1461024457806391d1485414610262578063998d826514610292578063a217fddf146102ae57610115565b80632f2ff15d116100e95780632f2ff15d146101b457806333e17068146101d057806336568abe146101ee5780633e4803d91461020a578063559cdcfa1461022657610115565b806261320c1461011a57806301ffc9a71461013657806320bf19ec14610166578063248a9ca314610184575b600080fd5b610134600480360381019061012f9190611544565b61036c565b005b610150600480360381019061014b91906115dc565b610388565b60405161015d9190611624565b60405180910390f35b61016e610402565b60405161017b919061164e565b60405180910390f35b61019e60048036038101906101999190611669565b610426565b6040516101ab919061164e565b60405180910390f35b6101ce60048036038101906101c99190611696565b610445565b005b6101d8610466565b6040516101e5919061164e565b60405180910390f35b61020860048036038101906102039190611696565b61048a565b005b610224600480360381019061021f919061170c565b61050d565b005b61022e610695565b60405161023b919061164e565b60405180910390f35b61024c6106b9565b604051610259919061164e565b60405180910390f35b61027c60048036038101906102779190611696565b6106dd565b6040516102899190611624565b60405180910390f35b6102ac60048036038101906102a7919061170c565b610747565b005b6102b66108ed565b6040516102c3919061164e565b60405180910390f35b6102e660048036038101906102e1919061170c565b6108f4565b005b61030260048036038101906102fd919061187f565b610a7c565b005b61031e6004803603810190610319919061170c565b610be5565b60405161032b9190611a52565b60405180910390f35b61034e60048036038101906103499190611696565b610d56565b005b61036a6004803603810190610365919061170c565b610d77565b005b6000801b61037981610eff565b6103838284610f13565b505050565b60007f7965db0b000000000000000000000000000000000000000000000000000000007bffffffffffffffffffffffffffffffffffffffffffffffffffffffff1916827bffffffffffffffffffffffffffffffffffffffffffffffffffffffff191614806103fb57506103fa82610ff3565b5b9050919050565b7f4bd537d64930d51674d2211b649bb830bcd4244821255bd281cb34aaa55bb91381565b6000806000838152602001908152602001600020600101549050919050565b61044e82610426565b61045781610eff565b6104618383610f13565b505050565b7f02834e745e45e65d88764a4a14de074383a0ddf208a3b4037c45abceba19b95b81565b61049261105d565b73ffffffffffffffffffffffffffffffffffffffff168173ffffffffffffffffffffffffffffffffffffffff16146104ff576040517f08c379a00000000000000000000000000000000000000000000000000000000081526004016104f690611af7565b60405180910390fd5b6105098282611065565b5050565b7f02df70b00ff0c95bd2d612080dd7bb34b4888d4e5932659e961f42a44ea1ea6461053781610eff565b6000600260008481526020019081526020016000206000015403610590576040517f08c379a000000000000000000000000000000000000000000000000000000000815260040161058790611b63565b60405180910390fd5b6003808111156105a3576105a2611956565b5b6002600084815260200190815260200160002060020160009054906101000a900460ff1660038111156105d9576105d8611956565b5b14610619576040517f08c379a000000000000000000000000000000000000000000000000000000000815260040161061090611bcf565b60405180910390fd5b60016002600084815260200190815260200160002060020160006101000a81548160ff0219169083600381111561065357610652611956565b5b02179055507fffb26e9c911188fa8045bb2ad080ace96c6f0707868269dc4a31b580ebc9bd968233604051610689929190611c0d565b60405180910390a15050565b7f02df70b00ff0c95bd2d612080dd7bb34b4888d4e5932659e961f42a44ea1ea6481565b7f0951ad040c467a940e24c1b925e7f2daaba78f2a4e90dbea68273cc639ac297b81565b600080600084815260200190815260200160002060000160008373ffffffffffffffffffffffffffffffffffffffff1673ffffffffffffffffffffffffffffffffffffffff16815260200190815260200160002060009054906101000a900460ff16905092915050565b7f0951ad040c467a940e24c1b925e7f2daaba78f2a4e90dbea68273cc639ac297b61077181610eff565b60006002600084815260200190815260200160002060000154036107ca576040517f08c379a00000000000000000000000000000000000000000000000000000000081526004016107c190611b63565b60405180910390fd5b600060038111156107de576107dd611956565b5b6002600084815260200190815260200160002060020160009054906101000a900460ff16600381111561081457610813611956565b5b14610854576040517f08c379a000000000000000000000000000000000000000000000000000000000815260040161084b90611c82565b60405180910390fd5b60016002600084815260200190815260200160002060020160006101000a81548160ff0219169083600381111561088e5761088d611956565b5b02179055504260026000848152602001908152602001600020600301819055507f0c9c30ffd3acaa16114cf0a4105cc09096a100c13d91e3f01ce85637073a18ef8242336040516108e193929190611ca2565b60405180910390a15050565b6000801b81565b7f02df70b00ff0c95bd2d612080dd7bb34b4888d4e5932659e961f42a44ea1ea6461091e81610eff565b6000600260008481526020019081526020016000206000015403610977576040517f08c379a000000000000000000000000000000000000000000000000000000000815260040161096e90611b63565b60405180910390fd5b60038081111561098a57610989611956565b5b6002600084815260200190815260200160002060020160009054906101000a900460ff1660038111156109c0576109bf611956565b5b03610a00576040517f08c379a00000000000000000000000000000000000000000000000000000000081526004016109f790611d25565b60405180910390fd5b60036002600084815260200190815260200160002060020160006101000a81548160ff02191690836003811115610a3a57610a39611956565b5b02179055507ff2049f5d4a1bceb43b11ae357b7fb302acf500866bacb2140c415ec8145634938233604051610a70929190611c0d565b60405180910390a15050565b7f4bd537d64930d51674d2211b649bb830bcd4244821255bd281cb34aaa55bb913610aa681610eff565b610ab06001611146565b6000610abc600161115c565b90506000838233604051602001610ad593929190611dea565b6040516020818303038152906040528051906020012090506040518060a0016040528083815260200185815260200160006003811115610b1857610b17611956565b5b8152602001600081526020018281525060026000848152602001908152602001600020600082015181600001556020820151816001019081610b5a919061202f565b5060408201518160020160006101000a81548160ff02191690836003811115610b8657610b85611956565b5b021790555060608201518160030155608082015181600401559050507fab9f2432a05b3e9f2ce026d33f2659fe863e5c5039ce031d71c79e11ae0e04c282858333604051610bd7949392919061213a565b60405180910390a150505050565b610bed611458565b6000600260008481526020019081526020016000206000015403610c46576040517f08c379a0000000000000000000000000000000000000000000000000000000008152600401610c3d90611b63565b60405180910390fd5b600260008381526020019081526020016000206040518060a001604052908160008201548152602001600182018054610c7e90611e52565b80601f0160208091040260200160405190810160405280929190818152602001828054610caa90611e52565b8015610cf75780601f10610ccc57610100808354040283529160200191610cf7565b820191906000526020600020905b815481529060010190602001808311610cda57829003601f168201915b505050505081526020016002820160009054906101000a900460ff166003811115610d2557610d24611956565b5b6003811115610d3757610d36611956565b5b8152602001600382015481526020016004820154815250509050919050565b610d5f82610426565b610d6881610eff565b610d728383611065565b505050565b7f02834e745e45e65d88764a4a14de074383a0ddf208a3b4037c45abceba19b95b610da181610eff565b6000600260008481526020019081526020016000206000015403610dfa576040517f08c379a0000000000000000000000000000000000000000000000000000000008152600401610df190611b63565b60405180910390fd5b60016003811115610e0e57610e0d611956565b5b6002600084815260200190815260200160002060020160009054906101000a900460ff166003811115610e4457610e43611956565b5b14610e84576040517f08c379a0000000000000000000000000000000000000000000000000000000008152600401610e7b906121f8565b60405180910390fd5b600280600084815260200190815260200160002060020160006101000a81548160ff02191690836003811115610ebd57610ebc611956565b5b02179055507f0e55bd337d6f1176f6901b82c023e72c918802285ec1a958319268985db8b1728233604051610ef3929190611c0d565b60405180910390a15050565b610f1081610f0b61105d565b61116a565b50565b610f1d82826106dd565b610fef57600160008084815260200190815260200160002060000160008373ffffffffffffffffffffffffffffffffffffffff1673ffffffffffffffffffffffffffffffffffffffff16815260200190815260200160002060006101000a81548160ff021916908315150217905550610f9461105d565b73ffffffffffffffffffffffffffffffffffffffff168173ffffffffffffffffffffffffffffffffffffffff16837f2f8788117e7eff1d82e926ec794901d17c78024a50270940304540a733656f0d60405160405180910390a45b5050565b60007f01ffc9a7000000000000000000000000000000000000000000000000000000007bffffffffffffffffffffffffffffffffffffffffffffffffffffffff1916827bffffffffffffffffffffffffffffffffffffffffffffffffffffffff1916149050919050565b600033905090565b61106f82826106dd565b1561114257600080600084815260200190815260200160002060000160008373ffffffffffffffffffffffffffffffffffffffff1673ffffffffffffffffffffffffffffffffffffffff16815260200190815260200160002060006101000a81548160ff0219169083151502179055506110e761105d565b73ffffffffffffffffffffffffffffffffffffffff168173ffffffffffffffffffffffffffffffffffffffff16837ff6391f5c32d9c69d2a47ea670b442974b53935d1edc7fd64eb21e047a839171b60405160405180910390a45b5050565b6001816000016000828254019250508190555050565b600081600001549050919050565b61117482826106dd565b6111eb57611181816111ef565b61118f8360001c602061121c565b6040516020016111a09291906122b0565b6040516020818303038152906040526040517f08c379a00000000000000000000000000000000000000000000000000000000081526004016111e291906122ea565b60405180910390fd5b5050565b60606112158273ffffffffffffffffffffffffffffffffffffffff16601460ff1661121c565b9050919050565b60606000600283600261122f919061233b565b611239919061237d565b67ffffffffffffffff81111561125257611251611754565b5b6040519080825280601f01601f1916602001820160405280156112845781602001600182028036833780820191505090505b5090507f3000000000000000000000000000000000000000000000000000000000000000816000815181106112bc576112bb6123b1565b5b60200101907effffffffffffffffffffffffffffffffffffffffffffffffffffffffffffff1916908160001a9053507f7800000000000000000000000000000000000000000000000000000000000000816001815181106113205761131f6123b1565b5b60200101907effffffffffffffffffffffffffffffffffffffffffffffffffffffffffffff1916908160001a90535060006001846002611360919061233b565b61136a919061237d565b90505b600181111561140a577f3031323334353637383961626364656600000000000000000000000000000000600f8616601081106113ac576113ab6123b1565b5b1a60f81b8282815181106113c3576113c26123b1565b5b60200101907effffffffffffffffffffffffffffffffffffffffffffffffffffffffffffff1916908160001a905350600485901c945080611403906123e0565b905061136d565b506000841461144e576040517f08c379a000000000000000000000000000000000000000000000000000000000815260040161144590612455565b60405180910390fd5b8091505092915050565b6040518060a0016040528060008152602001606081526020016000600381111561148557611484611956565b5b815260200160008152602001600080191681525090565b6000604051905090565b600080fd5b600080fd5b600073ffffffffffffffffffffffffffffffffffffffff82169050919050565b60006114db826114b0565b9050919050565b6114eb816114d0565b81146114f657600080fd5b50565b600081359050611508816114e2565b92915050565b6000819050919050565b6115218161150e565b811461152c57600080fd5b50565b60008135905061153e81611518565b92915050565b6000806040838503121561155b5761155a6114a6565b5b6000611569858286016114f9565b925050602061157a8582860161152f565b9150509250929050565b60007fffffffff0000000000000000000000000000000000000000000000000000000082169050919050565b6115b981611584565b81146115c457600080fd5b50565b6000813590506115d6816115b0565b92915050565b6000602082840312156115f2576115f16114a6565b5b6000611600848285016115c7565b91505092915050565b60008115159050919050565b61161e81611609565b82525050565b60006020820190506116396000830184611615565b92915050565b6116488161150e565b82525050565b6000602082019050611663600083018461163f565b92915050565b60006020828403121561167f5761167e6114a6565b5b600061168d8482850161152f565b91505092915050565b600080604083850312156116ad576116ac6114a6565b5b60006116bb8582860161152f565b92505060206116cc858286016114f9565b9150509250929050565b6000819050919050565b6116e9816116d6565b81146116f457600080fd5b50565b600081359050611706816116e0565b92915050565b600060208284031215611722576117216114a6565b5b6000611730848285016116f7565b91505092915050565b600080fd5b600080fd5b6000601f19601f8301169050919050565b7f4e487b7100000000000000000000000000000000000000000000000000000000600052604160045260246000fd5b61178c82611743565b810181811067ffffffffffffffff821117156117ab576117aa611754565b5b80604052505050565b60006117be61149c565b90506117ca8282611783565b919050565b600067ffffffffffffffff8211156117ea576117e9611754565b5b6117f382611743565b9050602081019050919050565b82818337600083830152505050565b600061182261181d846117cf565b6117b4565b90508281526020810184848401111561183e5761183d61173e565b5b611849848285611800565b509392505050565b600082601f83011261186657611865611739565b5b813561187684826020860161180f565b91505092915050565b600060208284031215611895576118946114a6565b5b600082013567ffffffffffffffff8111156118b3576118b26114ab565b5b6118bf84828501611851565b91505092915050565b6118d1816116d6565b82525050565b600081519050919050565b600082825260208201905092915050565b60005b838110156119115780820151818401526020810190506118f6565b60008484015250505050565b6000611928826118d7565b61193281856118e2565b93506119428185602086016118f3565b61194b81611743565b840191505092915050565b7f4e487b7100000000000000000000000000000000000000000000000000000000600052602160045260246000fd5b6004811061199657611995611956565b5b50565b60008190506119a782611985565b919050565b60006119b782611999565b9050919050565b6119c7816119ac565b82525050565b6119d68161150e565b82525050565b600060a0830160008301516119f460008601826118c8565b5060208301518482036020860152611a0c828261191d565b9150506040830151611a2160408601826119be565b506060830151611a3460608601826118c8565b506080830151611a4760808601826119cd565b508091505092915050565b60006020820190508181036000830152611a6c81846119dc565b905092915050565b600082825260208201905092915050565b7f416363657373436f6e74726f6c3a2063616e206f6e6c792072656e6f756e636560008201527f20726f6c657320666f722073656c660000000000000000000000000000000000602082015250565b6000611ae1602f83611a74565b9150611aec82611a85565b604082019050919050565b60006020820190508181036000830152611b1081611ad4565b9050919050565b7f4d61726368616e6469736520696e6578697374616e7465000000000000000000600082015250565b6000611b4d601783611a74565b9150611b5882611b17565b602082019050919050565b60006020820190508181036000830152611b7c81611b40565b9050919050565b7f4c61206d61726368616e64697365206e276573742070617320626c6f71756565600082015250565b6000611bb9602083611a74565b9150611bc482611b83565b602082019050919050565b60006020820190508181036000830152611be881611bac565b9050919050565b611bf8816116d6565b82525050565b611c07816114d0565b82525050565b6000604082019050611c226000830185611bef565b611c2f6020830184611bfe565b9392505050565b7f44656a6120636f6e74726f6c6565000000000000000000000000000000000000600082015250565b6000611c6c600e83611a74565b9150611c7782611c36565b602082019050919050565b60006020820190508181036000830152611c9b81611c5f565b9050919050565b6000606082019050611cb76000830186611bef565b611cc46020830185611bef565b611cd16040830184611bfe565b949350505050565b7f44656a6120626c6f717565650000000000000000000000000000000000000000600082015250565b6000611d0f600c83611a74565b9150611d1a82611cd9565b602082019050919050565b60006020820190508181036000830152611d3e81611d02565b9050919050565b600081905092915050565b6000611d5b826118d7565b611d658185611d45565b9350611d758185602086016118f3565b80840191505092915050565b6000819050919050565b611d9c611d97826116d6565b611d81565b82525050565b60008160601b9050919050565b6000611dba82611da2565b9050919050565b6000611dcc82611daf565b9050919050565b611de4611ddf826114d0565b611dc1565b82525050565b6000611df68286611d50565b9150611e028285611d8b565b602082019150611e128284611dd3565b601482019150819050949350505050565b7f4e487b7100000000000000000000000000000000000000000000000000000000600052602260045260246000fd5b60006002820490506001821680611e6a57607f821691505b602082108103611e7d57611e7c611e23565b5b50919050565b60008190508160005260206000209050919050565b60006020601f8301049050919050565b600082821b905092915050565b600060088302611ee57fffffffffffffffffffffffffffffffffffffffffffffffffffffffffffffffff82611ea8565b611eef8683611ea8565b95508019841693508086168417925050509392505050565b6000819050919050565b6000611f2c611f27611f22846116d6565b611f07565b6116d6565b9050919050565b6000819050919050565b611f4683611f11565b611f5a611f5282611f33565b848454611eb5565b825550505050565b600090565b611f6f611f62565b611f7a818484611f3d565b505050565b5b81811015611f9e57611f93600082611f67565b600181019050611f80565b5050565b601f821115611fe357611fb481611e83565b611fbd84611e98565b81016020851015611fcc578190505b611fe0611fd885611e98565b830182611f7f565b50505b505050565b600082821c905092915050565b600061200660001984600802611fe8565b1980831691505092915050565b600061201f8383611ff5565b9150826002028217905092915050565b612038826118d7565b67ffffffffffffffff81111561205157612050611754565b5b61205b8254611e52565b612066828285611fa2565b600060209050601f8311600181146120995760008415612087578287015190505b6120918582612013565b8655506120f9565b601f1984166120a786611e83565b60005b828110156120cf578489015182556001820191506020850194506020810190506120aa565b868310156120ec57848901516120e8601f891682611ff5565b8355505b6001600288020188555050505b505050505050565b600061210c826118d7565b6121168185611a74565b93506121268185602086016118f3565b61212f81611743565b840191505092915050565b600060808201905061214f6000830187611bef565b81810360208301526121618186612101565b9050612170604083018561163f565b61217d6060830184611bfe565b95945050505050565b7f4c61206d61726368616e6469736520646f6974206574726520636f6e74726f6c60008201527f6565206176616e74207472616e73697400000000000000000000000000000000602082015250565b60006121e2603083611a74565b91506121ed82612186565b604082019050919050565b60006020820190508181036000830152612211816121d5565b9050919050565b7f416363657373436f6e74726f6c3a206163636f756e7420000000000000000000600082015250565b600061224e601783611d45565b915061225982612218565b601782019050919050565b7f206973206d697373696e6720726f6c6520000000000000000000000000000000600082015250565b600061229a601183611d45565b91506122a582612264565b601182019050919050565b60006122bb82612241565b91506122c78285611d50565b91506122d28261228d565b91506122de8284611d50565b91508190509392505050565b600060208201905081810360008301526123048184612101565b905092915050565b7f4e487b7100000000000000000000000000000000000000000000000000000000600052601160045260246000fd5b6000612346826116d6565b9150612351836116d6565b925082820261235f816116d6565b915082820484148315176123765761237561230c565b5b5092915050565b6000612388826116d6565b9150612393836116d6565b92508282019050808211156123ab576123aa61230c565b5b92915050565b7f4e487b7100000000000000000000000000000000000000000000000000000000600052603260045260246000fd5b60006123eb826116d6565b9150600082036123fe576123fd61230c565b5b600182039050919050565b7f537472696e67733a20686578206c656e67746820696e73756666696369656e74600082015250565b600061243f602083611a74565b915061244a82612409565b602082019050919050565b6000602082019050818103600083015261246e81612432565b905091905056fea2646970667358221220b53a203e8269baeb6f7d9ec6df8b00e93a72f54c7cf4fb46b256abb0d18870e464736f6c63430008110033",
  "immutableReferences": {},
  "source": "// SPDX-License-Identifier: MIT\npragma solidity ^0.8.17;\n\nimport \"@openzeppelin/contracts/access/AccessControl.sol\";\nimport \"@openzeppelin/contracts/utils/Counters.sol\";\nimport \"@openzeppelin/contracts/utils/Strings.sol\";\n\ncontract ControleMarchandise is AccessControl {\n    using Counters for Counters.Counter;\n    using Strings for uint256;\n    \n   bytes32 public constant DOUANE_ROLE = keccak256(\"DOUANE\");\n   bytes32 public constant IMPORTATEUR_ROLE = keccak256(\"IMPORTATEUR\");\n   bytes32 public constant TRANSPORTEUR_ROLE = keccak256(\"TRANSPORTEUR\");\n   bytes32 public constant AUTORITE_PORTUAIRE_ROLE = keccak256(\"AUTORITE_PORTUAIRE\");\n\n\n\n    enum Statut { NON_CONTROLE, CONTROLE, EN_TRANSIT, BLOQUE }\n    \n    struct Marchandise {\n        uint256 id;\n        string nom;\n        Statut statut;\n        uint256 timestampValidation;\n        bytes32 hashAuthenticite;\n    }\n    \n    Counters.Counter private _marchandiseIds;\n    mapping(uint256 => Marchandise) private marchandises;\n\n    event MarchandiseAjoutee(uint256 id, string nom, bytes32 hashAuthenticite, address importateur);\n    event MarchandiseControlee(uint256 id, uint256 timestampValidation, address controleur);\n    event MarchandiseBloquee(uint256 id, address autorite);\n    event MarchandiseDebloquee(uint256 id, address autorite);\n    event MarchandiseEnTransit(uint256 id, address transporteur);\n\n constructor() {\n    _grantRole(DEFAULT_ADMIN_ROLE, msg.sender);\n    _setRoleAdmin(IMPORTATEUR_ROLE, DEFAULT_ADMIN_ROLE);\n    _setRoleAdmin(DOUANE_ROLE, DEFAULT_ADMIN_ROLE);\n    _setRoleAdmin(TRANSPORTEUR_ROLE, DEFAULT_ADMIN_ROLE);\n    _setRoleAdmin(AUTORITE_PORTUAIRE_ROLE, DEFAULT_ADMIN_ROLE);\n}\n\n    \n    function ajouterMarchandise(string memory _nom) external onlyRole(IMPORTATEUR_ROLE) {\n        _marchandiseIds.increment();\n        uint256 newId = _marchandiseIds.current();\n        bytes32 hashAuthenticite = keccak256(abi.encodePacked(_nom, newId, msg.sender));\n\n        marchandises[newId] = Marchandise({\n            id: newId,\n            nom: _nom,\n            statut: Statut.NON_CONTROLE,\n            timestampValidation: 0,\n            hashAuthenticite: hashAuthenticite\n        });\n\n        emit MarchandiseAjoutee(newId, _nom, hashAuthenticite, msg.sender);\n    }\n    \n    function controlerMarchandise(uint256 _id) external onlyRole(DOUANE_ROLE) {\n        require(marchandises[_id].id != 0, \"Marchandise inexistante\");\n        require(marchandises[_id].statut == Statut.NON_CONTROLE, \"Deja controlee\");\n\n        marchandises[_id].statut = Statut.CONTROLE;\n        marchandises[_id].timestampValidation = block.timestamp;\n\n        emit MarchandiseControlee(_id, block.timestamp, msg.sender);\n    }\n    \n    function bloquerMarchandise(uint256 _id) external onlyRole(AUTORITE_PORTUAIRE_ROLE) {\n        require(marchandises[_id].id != 0, \"Marchandise inexistante\");\n        require(marchandises[_id].statut != Statut.BLOQUE, \"Deja bloquee\");\n\n        marchandises[_id].statut = Statut.BLOQUE;\n\n        emit MarchandiseBloquee(_id, msg.sender);\n    }\n    \n    function debloquerMarchandise(uint256 _id) external onlyRole(AUTORITE_PORTUAIRE_ROLE) {\n        require(marchandises[_id].id != 0, \"Marchandise inexistante\");\n        require(marchandises[_id].statut == Statut.BLOQUE, \"La marchandise n'est pas bloquee\");\n\n        marchandises[_id].statut = Statut.CONTROLE; // Remet  ltat contrl\n\n        emit MarchandiseDebloquee(_id, msg.sender);\n    }\n    \n    function mettreEnTransit(uint256 _id) external onlyRole(TRANSPORTEUR_ROLE) {\n        require(marchandises[_id].id != 0, \"Marchandise inexistante\");\n        require(marchandises[_id].statut == Statut.CONTROLE, \"La marchandise doit etre controlee avant transit\");\n\n        marchandises[_id].statut = Statut.EN_TRANSIT;\n\n        emit MarchandiseEnTransit(_id, msg.sender);\n    }\n    \n    function consulterMarchandise(uint256 _id) external view returns (Marchandise memory) {\n        require(marchandises[_id].id != 0, \"Marchandise inexistante\");\n        return marchandises[_id];\n    }\n\n    function ajouterRole(address _compte, bytes32 _role) external onlyRole(DEFAULT_ADMIN_ROLE) {\n        _grantRole(_role, _compte);\n    }\n}\n",
  "sourcePath": "/Users/chaimae/Desktop/BlockchainProject/contracts/ControleMarchandise.sol",
  "compiler": {
    "name": "solc",
    "version": "0.8.17+commit.8df45f5f.Emscripten.clang"
  },
  "schemaVersion": "3.4.16",
  "updatedAt": "2025-03-03T02:19:28.567Z",
  "networkType": "ethereum",
  "devdoc": {
    "kind": "dev",
    "methods": {
      "getRoleAdmin(bytes32)": {
        "details": "Returns the admin role that controls `role`. See {grantRole} and {revokeRole}. To change a role's admin, use {_setRoleAdmin}."
      },
      "grantRole(bytes32,address)": {
        "details": "Grants `role` to `account`. If `account` had not been already granted `role`, emits a {RoleGranted} event. Requirements: - the caller must have ``role``'s admin role. May emit a {RoleGranted} event."
      },
      "hasRole(bytes32,address)": {
        "details": "Returns `true` if `account` has been granted `role`."
      },
      "renounceRole(bytes32,address)": {
        "details": "Revokes `role` from the calling account. Roles are often managed via {grantRole} and {revokeRole}: this function's purpose is to provide a mechanism for accounts to lose their privileges if they are compromised (such as when a trusted device is misplaced). If the calling account had been revoked `role`, emits a {RoleRevoked} event. Requirements: - the caller must be `account`. May emit a {RoleRevoked} event."
      },
      "revokeRole(bytes32,address)": {
        "details": "Revokes `role` from `account`. If `account` had been granted `role`, emits a {RoleRevoked} event. Requirements: - the caller must have ``role``'s admin role. May emit a {RoleRevoked} event."
      },
      "supportsInterface(bytes4)": {
        "details": "See {IERC165-supportsInterface}."
      }
    },
    "version": 1
  },
  "userdoc": {
    "kind": "user",
    "methods": {},
    "version": 1
  }
}